S01600002E2F44656275672F5254532D4C61622E73313936
S3152000000000BFDFF814D001F00EFC02F047FE01F02D
S315200000101CBCFEE700BF000000C0012080B500AF79
S3152000002001214FF4804006F019F900214FF4804059
S3152000003006F014F900BF80BD80B483B000AF03463C
S31520000040FB71044AFB79136000BF0C37BD465DF88F
S31520000050047B70470038014080B483B000AF03466C
S31520000060FB71044AFB79136000BF0C37BD465DF86F
S31520000070047B70472000274280B485B000AF03463A
S315200000800A46FB711346BB710023FB60BB7903F064
S3152000009003039B000F2202FA03F3FB60164ABB7987
S315200000A09B08DBB2023352F82320FB68DB4312485D
S315200000B0B9798908C9B21A408B1C40F823200E4A08
S315200000C0BB799B08DBB2023352F82320F979BB793E
S315200000D003F003039B0001FA03F30748B979890863
S315200000E0C9B21A438B1C40F8232000BF1437BD46E3
S315200000F05DF8047B704700BF0038014080B483B0B0
S3152000010000AF7860044A7B68136000BF0C37BD4699
S315200001105DF8047B704700BFDC00274280B483B0C3
S3152000012000AF0346FB71044AFB79136000BF0C370E
S31520000130BD465DF8047B70470004274280B483B037
S3152000014000AF0023FB71094B1B6A03F48073002B5D
S3152000015002D00123FB7101E00023FB71FB791846D5
S315200001600C37BD465DF8047B704700BF0038014060
S3152000017080B400AF094B00221A60084B00225A6057
S31520000180064B00229A60054B0022DA60034B044A94
S315200001905A6100BFBD465DF8047B7047003C0140B4
S315200001A0FFFF7F0080B485B000AF78600023FB603E
S315200001B0344BFB607B689B79002B4FD0314B1A6800
S315200001C07B681B68DB432F4913400B602D4B5A6815
S315200001D07B681B68DB432B4913404B607B681B798C
S315200001E01A46FB681344FB60FB6819687B681A682B
S315200001F0FB680A431A60234B9A687B681B68DB43BB
S31520000200204913408B601F4BDA687B681B68DB43F1
S315200002101C491340CB607B685B79102B0ED1194BA0
S315200002209A687B681B68174913438B60154BDA68FD
S315200002307B681B6813491343CB601DE0114BFB60A1
S315200002407B685B791A46FB681344FB60FB68196878
S315200002507B681A68FB680A431A600DE07B681B7985
S315200002601A46FB681344FB60FB6819687B681B68A9
S31520000270DA43FB680A401A6000BF1437BD465DF8B2
S31520000280047B7047003C014080B483B000AF7860A7
S315200002907B6800221A607B6800221A717B680C2218
S315200002A05A717B6800229A7100BF0C37BD465DF8F3
S315200002B0047B704780B483B000AF7860054B1A6921
S315200002C004497B6813430B6100BF0C37BD465DF8BC
S315200002D0047B7047003C014080B485B000AF786055
S315200002E00023FB73084B5A697B681340002B02D00E
S315200002F00123FB7301E00023FB73FB7B18461437B5
S31520000300BD465DF8047B7047003C014080B483B055
S3152000031000AF7860044A7B68536100BF0C37BD4646
S315200003205DF8047B704700BF003C014080B485B077
S3152000033000AF78600023FB73084B5A697B68134033
S31520000340002B02D00123FB7301E00023FB73FB7B10
S3152000035018461437BD465DF8047B7047003C0140C3
S3152000036080B483B000AF7860044A7B68536100BFD5
S315200003700C37BD465DF8047B704700BF003C01404A
S3152000038080B582B000AF78607B680E4A93420AD16E
S3152000039001214FF0007005F041FF00214FF0007061
S315200003A005F03CFF09E001214FF0806005F036FFA3
S315200003B000214FF0806005F031FF00BF0837BD46B1
S315200003C080BD00BF0064004080B485B000AF786077
S315200003D039600023FB730023BB607B681B6823F016
S315200003E002027B681A607B681B6843F001027B6807
S315200003F01A6002E0BB680133BB607B685B6803F070
S315200004000103012B04D0BB684FF6FF729342F1D152
S315200004107B685B6803F00103012B02D00023FB738A
S315200004209CE03B689B79012B06D17B681B6843F0D7
S3152000043080027B681A6005E07B681B6823F08002D7
S315200004407B681A603B68DB79012B06D17B681B68C9
S3152000045043F040027B681A6005E07B681B6823F046
S3152000046040027B681A603B681B7A012B06D17B68A9
S315200004701B6843F020027B681A6005E07B681B68D6
S3152000048023F020027B681A603B685B7A012B06D139
S315200004907B681B6843F010027B681A6005E07B6866
S315200004A01B6823F010027B681A603B689B7A012B3D
S315200004B006D17B681B6843F008027B681A6005E05A
S315200004C07B681B6823F008027B681A603B68DB7A2E
S315200004D0012B06D17B681B6843F004027B681A60F7
S315200004E005E07B681B6823F004027B681A603B6882
S315200004F09B789A073B68DB781B061A433B681B7977
S315200005001B041A433B685B791B051A433B681B880F
S31520000510013B1A437B68DA617B681B6823F0010282
S315200005207B681A600023BB6002E0BB680133BB60B6
S315200005307B685B6803F00103012B04D1BB684FF68F
S31520000540FF729342F1D17B685B6803F00103012BB4
S3152000055002D10023FB7301E00123FB73FB7B1846CA
S315200005601437BD465DF8047B704790B484B000AF65
S3152000057078600023FB607B689B7A1A4601239340B0
S31520000580FB605A4BD3F80032584A43F00103C2F8B5
S315200005900032564BD3F81C22FB68DB4353491340E9
S315200005A0C1F81C327B681B7B002B29D14F4BD3F81B
S315200005B00C22FB68DB434D491340C1F80C327B68A3
S315200005C0DB881B047A685288144648497A68927AEE
S315200005D0104643EA040200F1480341F833207B68C1
S315200005E09B881B047A681288144640497A68927A56
S315200005F0104643EA040200F14803DB000B445A602C
S315200006007B681B7B012B28D1384BD3F80C2237492A
S31520000610FB681343C1F80C327B681B881B047A687D
S315200006205288144631497A68927A104643EA04027F
S3152000063000F1480341F833207B689B881B047A68C5
S31520000640D288144629497A68927A104643EA0402E7
S3152000065000F14803DB000B445A607B68DB7A002BF1
S3152000066009D1224BD3F80422FB68DB431F491340F0
S31520000670C1F8043207E01D4BD3F804221B49FB685E
S315200006801343C1F804327B681B89002B08D1174B12
S31520000690D3F81422FB68DB4314491340C1F8143203
S315200006A07B681B89012B07D1104BD3F814220F49E5
S315200006B0FB681343C1F814327B685B7B012B07D19F
S315200006C00A4BD3F81C220949FB681343C1F81C3294
S315200006D0064BD3F80032054A23F00103C2F8003254
S315200006E000BF1037BD4690BC704700BF0064004075
S315200006F080B483B000AF78607B6800229A717B68F3
S315200007000022DA717B6800221A727B6800225A72F4
S315200007107B6800229A727B680022DA727B6800224C
S315200007209A707B680022DA707B6803221A717B68D4
S3152000073002225A717B6801221A8000BF0C37BD46FF
S315200007405DF8047B704780B483B000AF0346FB712D
S31520000750144BD3F80032134A43F00103C2F8003297
S31520000760104BD3F800320F4A23F47C5323F00E03A8
S31520000770C2F800320B4BD3F80022FB791B02094941
S315200007801343C1F80032074BD3F80032054A23F051
S315200007900103C2F8003200BF0C37BD465DF8047B6A
S315200007A0704700BF0064004080B483B000AF78601B
S315200007B00B46FB70FB78002B06D07B681B6843F446
S315200007C080327B681A6005E07B681B6823F48032E0
S315200007D07B681A6000BF0C37BD465DF8047B704706
S315200007E080B483B000AF78600B46FB70FB78002B9B
S315200007F01ED07B681B6843F080027B681A607B688A
S31520000800D3F8843143F480727B68C3F884217B68F3
S31520000810D3F8943143F480727B68C3F894217B68C3
S31520000820D3F8A43143F480727B68C3F8A4211DE079
S315200008307B681B6823F080027B681A607B68D3F88C
S31520000840843123F480727B68C3F884217B68D3F8D3
S31520000850943123F480727B68C3F894217B68D3F8A3
S31520000860A43123F480727B68C3F8A42100BF0C371F
S31520000870BD465DF8047B704780B485B000AF7860D4
S3152000088039600023FB737B689B6803F08063B3F1B8
S31520000890806F02D10023FB7315E07B689B6803F011
S315200008A00063B3F1006F02D10123FB730BE07B6879
S315200008B09B6803F08053B3F1805F02D10223FB7360
S315200008C001E00423FB73FB7B042B00F09F80FB7B62
S315200008D07A6818331B0113441A68FB7B02F0010265
S315200008E0796818331B010B441A603B681B7A002B6E
S315200008F013D1FB7B7A6818331B01134419683B68B4
S315200009001B685B053A68527A1A43FB7B0A4379686F
S3152000091018331B010B441A6015E0FB7B7A681833E9
S315200009201B01134419683B685B68DB003A68127A3E
S3152000093013433A68527A1A43FB7B0A437968183381
S315200009401B010B441A603B689B7A03F00F03DAB253
S315200009503B689A72FB7B7A6818331B011344043375
S315200009601A68FB7B22F00F02796818331B010B44AF
S3152000097004331A60FB7B7A6818331B011344043353
S315200009801A683B689B7A1946FB7B0A4379681833B9
S315200009901B010B4404331A603B689B7B1A063B6899
S315200009A05B7B1B041A433B681B7B1B021A433B6879
S315200009B0DB7A1946FB7B0A4379681B010B4403F556
S315200009C0C4731A603B689B7C1A063B685B7C1B04DD
S315200009D01A433B681B7C1B021A433B68DB7B194688
S315200009E0FB7B0A4379681B010B4403F5C6731A6027
S315200009F0FB7B7A6818331B0113441A68FB7B42F091
S31520000A000102796818331B010B441A60FB7B1846D8
S31520000A101437BD465DF8047B704780B485B000AFBF
S31520000A2078600B46FB700023FB60FB78022B12D00C
S31520000A30022B16DC002B02D0012B06D011E07B689E
S31520000A409A68314B1340FB600EE07B689A682F4B07
S31520000A501340FB6008E07B689A682D4B1340FB60CF
S31520000A6002E00023FB6000BFFB68294A93423DD089
S31520000A70FB68274A93423CD8FB68264A93422CD0EF
S31520000A80FB68244A934234D8FB68204A93422AD0F2
S31520000A90FB681E4A93422CD8FB681F4A934219D002
S31520000AA0FB681D4A934224D8FB68174A934217D005
S31520000AB0FB68154A93421CD8FB68002B04D0FB68C0
S31520000AC0164A934203D014E00223FB6014E000236D
S31520000AD0FB6011E00023FB600EE00023FB600BE0CF
S31520000AE00123FB6008E00123FB6005E00123FB6096
S31520000AF002E00023FB6000BFFB68DBB21846143718
S31520000B00BD465DF8047B704703000004000300081F
S31520000B10000003100000011000010008010000047D
S31520000B2080B483B000AF78600B46FB70FB78022B55
S31520000B3014D0022B19DC002B02D0012B07D014E095
S31520000B407B689B6843F080027B689A600EE07B6836
S31520000B509B6843F400427B689A6007E07B689B6849
S31520000B6043F400027B689A6000E000BF00BF0C37A8
S31520000B70BD465DF8047B704780B485B000AFF86051
S31520000B800B467A60FB72FB7AFA681B331B0113440F
S31520000B901B68DBB203F00403DAB27B681A727B6847
S31520000BA01B7A002B0BD1FB7AFA681B331B011344EB
S31520000BB01B685B0DC3F30A027B681A600AE0FB7AA6
S31520000BC0FA681B331B0113441B68DB0823F06042C1
S31520000BD07B685A60FB7AFA681B331B0113441B6837
S31520000BE0DBB203F00203DAB27B685A72FB7AFA6848
S31520000BF01B331B01134404331B68DBB203F00F03C2
S31520000C00DAB27B689A72FB7AFA681B331B011344AB
S31520000C1004331B681B0ADAB27B68DA74FB7AFA683B
S31520000C201B01134403F5DC731B68DAB27B68DA72A6
S31520000C30FB7AFA681B01134403F5DC731B681B0A55
S31520000C40DAB27B681A73FB7AFA681B01134403F540
S31520000C50DC731B681B0CDAB27B685A73FB7AFA6862
S31520000C601B01134403F5DC731B681B0EDAB27B6889
S31520000C709A73FB7AFA681B01134403F5DE731B682B
S31520000C80DAB27B68DA73FB7AFA681B01134403F540
S31520000C90DE731B681B0ADAB27B681A74FB7AFA6861
S31520000CA01B01134403F5DE731B681B0CDAB27B6849
S31520000CB05A74FB7AFA681B01134403F5DE731B682A
S31520000CC01B0EDAB27B689A74FB7A002B06D1FB687E
S31520000CD0DB6843F02002FB68DA6005E0FB681B69ED
S31520000CE043F02002FB681A6100BF1437BD465DF849
S31520000CF0047B704780B483B000AF78600B46FB70EE
S31520000D00FB78002B06D17B68DB6843F020027B68EA
S31520000D10DA6005E07B681B6943F020027B681A6174
S31520000D2000BF0C37BD465DF8047B704780B485B0A4
S31520000D3000AF78600B46FB700023FB73FB78002B1B
S31520000D4006D17B68DB68DBB203F00303FB730BE0A1
S31520000D50FB78012B06D17B681B69DBB203F003030A
S31520000D60FB7301E00023FB73FB7B18461437BD465B
S31520000D705DF8047B704780B485B000AF78600B4681
S31520000D80FB700023FB734FF6FF73BB60FB78002BD1
S31520000D9020D17B681B6823F0030343F001027B68A4
S31520000DA01A6002E0BB68013BBB607B685B6803F0AE
S31520000DB00303012B02D0BB68002BF3D17B685B6851
S31520000DC003F00303012B02D00023FB734AE0012327
S31520000DD0FB7347E0FB78012B1ED17B681B6823F051
S31520000DE003027B681A6002E0BB68013BBB607B683C
S31520000DF05B6803F00303002B02D0BB68002BF3D102
S31520000E007B685B6803F00303002B02D00023FB738F
S31520000E1028E00123FB7325E0FB78022B20D17B6899
S31520000E201B6823F0030343F002027B681A6002E08A
S31520000E30BB68013BBB607B685B6803F00303022B46
S31520000E4002D0BB68002BF3D17B685B6803F00303F9
S31520000E50022B02D00023FB7304E00123FB7301E085
S31520000E600023FB73FB7B18461437BD465DF8047BD5
S31520000E70704780B485B000AF78600023FB737B6831
S31520000E801B6823F0030343F002027B681A607B6829
S31520000E905B6803F00303022B01D10123FB73FB7B69
S31520000EA018461437BD465DF8047B704780B485B07C
S31520000EB000AF78604FF6FF73FB600023FB727B6800
S31520000EC01B6823F002027B681A6002E0FB68013B84
S31520000ED0FB607B685B6803F00203022B02D1FB6890
S31520000EE0002BF3D17B685B6803F00203022B01D051
S31520000EF00123FB72FB7A18461437BD465DF8047B46
S31520000F00704780B485B000AF78600023FB737B68A0
S31520000F109B69DBB203F07003FB73FB7B1846143727
S31520000F20BD465DF8047B704780B485B000AF78601D
S31520000F300023FB737B689B691B0EFB73FB7B1846A8
S31520000F401437BD465DF8047B704780B485B000AF8A
S31520000F5078600023FB737B689B691B0CFB73FB7B10
S31520000F6018461437BD465DF8047B704780B485B0BB
S31520000F7000AFF860B9601346FB71FB79002B06D0F1
S31520000F80FB685A69BB681A43FB685A6106E0FB682E
S31520000F905A69BB68DB431A40FB685A6100BF1437A5
S31520000FA0BD465DF8047B704780B485B000AF78609D
S31520000FB039600023FB733B6803F47003002B0DD0CC
S31520000FC07B689A693B681340C3F31303002B02D056
S31520000FD00123FB7348E00023FB7345E03B6803F0E5
S31520000FE08073002B0DD07B685A683B681340C3F38F
S31520000FF01303002B02D00123FB7335E00023FB7380
S3152000100032E03B6803F00063002B0DD07B689A68C2
S315200010103B681340C3F31303002B02D00123FB7359
S3152000102022E00023FB731FE03B6803F00073002BD4
S315200010300DD07B68DA683B681340C3F31303002B9B
S3152000104002D00123FB730FE00023FB730CE07B68C7
S315200010501A693B681340C3F31303002B02D0012304
S31520001060FB7301E00023FB73FB7B18461437BD4658
S315200010705DF8047B704780B485B000AF7860396036
S315200010800023FB603B68174A934203D17B6800220A
S315200010909A6121E03B68C3F31303FB603B6803F0CE
S315200010A00073002B03D07B68FA68DA6014E03B6893
S315200010B003F08063002B03D07B68FA681A610BE08B
S315200010C03B6803F00063002B03D07B68FA689A60C4
S315200010D002E07B68FA685A6000BF1437BD465DF8A7
S315200010E0047B70477000F03080B584B000AF786024
S315200010F039600023FB737B685A693B681340002BD9
S3152000110000F01B813B68B3F5003F00F0DD803B68B3
S31520001110B3F5003F00F20E813B68B3F5803F00F047
S31520001120CA803B68B3F5803F00F204813B68B3F583
S31520001130004F00F0F6803B68B3F5004F00F2FA80CE
S315200011403B68B3F5006F00F0E3803B68B3F5006FB2
S3152000115000F2F0803B68B3F5806F00F0D0803B68EA
S31520001160B3F5806F00F2E6803B68B3F5007F00F0B0
S31520001170BD803B68B3F5007F00F2DC803B68B3F5A9
S31520001180807F00F0AA803B68B3F5807F00F2D28092
S315200011903B68202B4CD83B68002B00F0CB803B686B
S315200011A0013B1F2B00F2C68001A252F823F000BF9C
S315200011B0391200204B120020351300205D1200202A
S315200011C03513002035130020351300206F12002020
S315200011D03513002035130020351300203513002049
S315200011E035130020351300203513002081120020EE
S315200011F03513002035130020351300203513002029
S315200012003513002035130020351300203513002018
S315200012103513002035130020351300203513002008
S31520001220351300203513002035130020931200209B
S315200012303B68402B36D07DE07B689B684249184648
S3152000124000F060F90346FB7379E07B68DB680321D5
S31520001250184600F057F90346FB7370E07B68DB689D
S315200012600821184600F04EF90346FB7367E07B68B9
S31520001270DB681021184600F045F90346FB735EE053
S315200012807B681B690321184600F03CF90346FB7373
S3152000129055E07B681B690821184600F033F90346A0
S315200012A0FB734CE07B681B691021184600F02AF975
S315200012B00346FB7343E07B685B680821184600F011
S315200012C021F90346FB733AE07B685B6810211846D8
S315200012D000F018F90346FB7331E07B689B69012116
S315200012E0184600F00FF90346FB7328E07B689B69DC
S315200012F00221184600F006F90346FB731FE07B68BF
S315200013009B690421184600F0FDF80346FB7316E09E
S315200013107B689B697021184600F0F4F80346FB733E
S315200013200DE07B685B680421184600F0EBF8034665
S31520001330FB7304E00023FB7301E00023FB73FB7BBC
S3152000134018461037BD4680BD0101010080B483B028
S3152000135000AF786039603B68B3F5003F00F0AA80A3
S315200013603B68B3F5003F00F2C3803B68B3F5803F8E
S3152000137000F09C803B68B3F5803F00F2B9803B6863
S31520001380B3F5004F00F0AD803B68B3F5004F00F297
S31520001390AF803B68B3F5006F00F09C803B68B3F5E7
S315200013A0006F00F2A5803B68B3F5806F00F08E8059
S315200013B03B68B3F5806F00F29B803B68B3F5007FF6
S315200013C000F080803B68B3F5007F00F291803B6897
S315200013D0B3F5807F72D03B68B3F5807F00F28880BA
S315200013E03B68202B4AD83B68002B00F081803B6865
S315200013F0013B1F2B7CD801A252F823F08514002034
S31520001400F1140020F11400208D140020F114002086
S31520001410F1140020F114002095140020F11400206E
S31520001420F1140020F1140020F1140020F114002002
S31520001430F1140020F1140020F1140020F1140020F2
S31520001440F1140020F1140020F1140020F1140020E2
S31520001450F1140020F1140020F1140020F1140020D2
S31520001460F1140020F1140020F1140020F1140020C2
S31520001470F1140020F11400209D1400203B68402B1D
S3152000148010D035E07B681E4A9A6032E07B680822DD
S31520001490DA602EE07B681022DA602AE07B68082278
S315200014A01A6126E07B6810221A6122E07B680822F6
S315200014B05A601EE07B6810225A601AE07B6804227C
S315200014C05A6016E07B6804225A6012E07B68042288
S315200014D05A600EE07B6800229A617B6804225A607B
S315200014E007E07B6800229A617B6804225A6000E04C
S315200014F000BF00BF0C37BD465DF8047B704700BFB8
S315200015000101010080B485B000AF78603960002306
S31520001510FB737A683B681340002B02D00123FB73D0
S3152000152001E00023FB73FB7B18461437BD465DF8AC
S31520001530047B704780B400AF00BFBD465DF8047BD6
S31520001540704780B586B000AF454803F091FC45480A
S31520001550FEF716FF4448FEF713FF01214FF00070F7
S3152000156004F0BCFD01214FF0806004F0B7FD01219D
S31520001570022004F053FD09220921394803F09AFE7E
S3152000158009220821364803F095FE07F11003184674
S3152000159003F0AFFD4FF400733B6102233B7500233C
S315200015A0BB750023FB7502237B7507F110031946D3
S315200015B02B4803F00FFD4FF480733B6102233B75EC
S315200015C00023BB750123FB7502237B7507F11003EE
S315200015D01946234803F0FEFC09220621204803F081
S315200015E069FE092205211E4803F064FE40233B6163
S315200015F002233B750023BB750023FB7502237B75F5
S3152000160007F110031946164803F0E4FC20233B613A
S3152000161002233B750023BB750123FB7502237B75D3
S3152000162007F1100319460E4803F0D4FC0023BB72C1
S315200016300023FB7201233B7300233B8000237B8026
S315200016400023BB800023FB8000233B8101237B7387
S315200016503B461846FEF789FF00BF1837BD4680BDBA
S3152000166000040240006400400068004080B586B057
S3152000167000AF01214FF0005004F030FD07F11003B8
S31520001680184603F036FD20233B6103233B750023D8
S31520001690FB7507F1100319460F4803F09BFC03F076
S315200016A0BFF93B46184603F0FDF900233B600023B3
S315200016B07B600023FB603B461946102003F0BEF9F1
S315200016C00121102003F004FA0021082003F0AEFACD
S315200016D000BF1837BD4680BD0000024080B584B0EB
S315200016E000AF01214FF4804004F018FD07210120AE
S315200016F0FEF7C2FCFEF73CFD3B461846FEF7C4FD4E
S3152000170080233B6000233B710C237B710123BB713B
S315200017103B461846FEF746FD07F10803184603F038
S31520001720E8FC0223BB6001233B730123BB73002328
S31520001730FB7301237B7307F108031946184803F04E
S3152000174049FC0123BB6001233B730123BB730023A8
S31520001750FB7301237B7307F108031946104803F036
S3152000176039FC012202210E4803F06BFD01220121E2
S315200017700B4803F066FD8023BB6000233B730023E8
S31520001780BB730023FB7301237B7307F10803194600
S31520001790034803F01FFC00BF1037BD4680BD00BFC5
S315200017A00004024080B483B000AFEFF314833B60A3
S315200017B03B6823F003037B607B6883F3148800BFB8
S315200017C0094B4FF404725A61074B5B69064A43F092
S315200017D008035361054B4FF000425A6000BF0C3797
S315200017E0BD465DF8047B704700ED00E030EF00E079
S315200017F080B500AF0121082004F070FC01210820EB
S3152000180004F0ACFD00BF80BD80B400AF124A02E0F8
S31520001810002342F8043B114B9A42F9D300BFBD4640
S315200018205DF8047B704780B500AFFFF7EDFFFFF74B
S3152000183081FEFFF786FEFFF719FFFFF74FFFFFF741
S31520001840B1FFFFF7D5FF00BF80BD80B400AF00BF5A
S31520001850BD465DF8047B7047F0A0002030250120AE
S3152000186080B483B000AF0346FB71FB7903F01F03FE
S31520001870012202FA03F1064A97F907305B0942F87A
S31520001880231000BF0C37BD465DF8047B704700BFB0
S3152000189000E100E080B483B000AF03463960FB71FD
S315200018A097F90730002B0BDA3B68DAB20C49FB7943
S315200018B003F00F03043B1201D2B20B441A7609E05F
S315200018C03B68DAB2074997F907301201D2B20B44C6
S315200018D083F8002300BF0C37BD465DF8047B7047B4
S315200018E000ED00E000E100E080B582B000AF786056
S315200018F039607B6800229A617B689A697B685A61A5
S315200019007B685A697B68DA61012240F225510A48D0
S3152000191002F0C0FE002240F22771074802F0BAFE0C
S3152000192002212520FFF7B6FF2520FFF799FF00BFEC
S315200019300837BD4680BD00BF0010014080B483B08B
S3152000194000AF78600B46FB707B68DB69B3F5806F70
S3152000195017DA7B685B697A681344FA7883F8202063
S315200019607B685B6901335A42C3F30903C2F3090258
S3152000197058BF53427A6853617B68DB695A1C7B687F
S31520001980DA6100BF0C37BD465DF8047B704780B531
S3152000199082B000AF786039607B68DB69002B18D194
S315200019A07B689B68012240F22771184602F072FE7E
S315200019B00FE03B681B780A2B03D10D217868FFF7CF
S315200019C0BDFF3B685A1C3A601B7819467868FFF7BA
S315200019D0B5FF3B681B78002BEBD100BF00BF083753
S315200019E0BD4680BD80B582B000AF786039607B6827
S315200019F0DB69002B07D17B689B68012240F22771A7
S31520001A00184602F047FE3B68DBB219467868FFF7B6
S31520001A1095FF00BF0837BD4680BD80B586B002AFB2
S31520001A20786039607B689B682021184602F07AFE30
S31520001A300346012B18D17B689B68184602F095FC5B
S31520001A400346FB607B68DB68002B0DD07B68DA6879
S31520001A507B681969FB6800930B460021002001F082
S31520001A6025FF234B01221A607B689B68802118463C
S31520001A7002F058FE0346012B35D17B68DB69002B2B
S31520001A8029DD7B6898687B689B697A68134493F89C
S31520001A9020309BB2194602F056FC7B689B690133C5
S31520001AA05A42C3F30903C2F3090258BF53427A6864
S31520001AB093617B68DB695A1E7B68DA617B68DB6928
S31520001AC0002B10D17B689B68002240F227711846B4
S31520001AD002F0E0FD07E07B689B68002240F2277158
S31520001AE0184602F0D7FD002318461037BD4680BDA4
S31520001AF0F0240120314900E03149EFF3088020ED40
S31520001B00108A7246EFF3118320E9FC0F2D4FD7F888
S31520001B100080C8F800001EE0084601F08BFA2A482B
S31520001B2001F088FA294801F085FAD8F8040001F076
S31520001B30CDFA274801F07EFAD8F8000001F097FA8E
S31520001B40244801F077FAD8F80000006801F08FFAEF
S31520001B501D4801F06FFADFF88080D8F80080C7F8BA
S31520001B60008018E01D4801F065FAD8F8040001F05D
S31520001B70ADFA1B4801F05EFAD8F8000001F077FABA
S31520001B80144801F057FAD8F80000006801F06FFAFF
S31520001B900D4801F04FFA134A536843F0006353602F
S31520001BA000BFD8F80000B0E8FC0F83F311889646F2
S31520001BB0B0EC108A80F30888704700002499002032
S31520001BC03599002078A00020A5990020569900205C
S31520001BD06E99002076990020FC2401207F99002010
S31520001BE09499002000ED00E090B593B002AF7860A4
S31520001BF03960864B5B69002B16D1844B01225A61D2
S31520001C0001228349834801F0EFFE834801F0EAFF71
S31520001C1003467E4AD36000230093804B7B4A0021F3
S31520001C207F4801F043FEECE07B4801F0DBFF0246F3
S31520001C30764BDB68D31A7B4A82FB03125211DB17E1
S31520001C40D31A724AD360714BDB68B3F57A7F80F280
S31520001C50D080754BDB69032B00F2CA8001A252F8B3
S31520001C6023F000BF751C0020AB1C0020DB1C0020CD
S31520001C700B1D00206D4801F097FF6C4801F0B2FF64
S31520001C800346684A82FB03125211DB17D31A664AAF
S31520001C90D360654BDB690133634AD361644B1A46D3
S31520001CA06449654801F0A0FEA3E0604801F09AFF70
S31520001CB003465C4A82FB03125211DB17D31A5A4A97
S31520001CC01361594BDB690133574AD3615B4B1A4683
S31520001CD05849594801F088FE8BE0544801F082FFAC
S31520001CE00346504A82FB03125211DB17D31A4E4A7F
S31520001CF053614D4BDB6901334B4AD361504B1A4636
S31520001D004C494D4801F070FE73E0484801F06AFFE7
S31520001D100346444A82FB03125211DB17D31A424A66
S31520001D209361414B0022DA61464B1A4641494248AB
S31520001D3001F05AFE3C4BD8683B4B19693A4B5A691D
S31520001D40394B9B6900F0B2F80346012B49D1364B3B
S31520001D50DB68354A12691146184600F0FCF804463D
S31520001D60314B1B69304A52691146184600F0F3F888
S31520001D7003461C442C4B5B692B4A92691146184634
S31520001D8000F0E9F8034623442F4A82FB0312DB17AF
S31520001D90D31AFB63FB6BC72B1CDDFB6BB3F5FA6F0A
S31520001DA018DC4EF66022FB6B92FBF3F3FB63274AAB
S31520001DB0FB6B936007F10800FB6B254A322106F086
S31520001DC04FFD07F108031A461A491B4801F00CFE7D
S31520001DD000BF0EE01F4B1A461649174801F004FEB5
S31520001DE007E01D4B1A461349134801F0FDFD00E09C
S31520001DF000BF064B00225A6100220549054801F022
S31520001E00F3FD00BF4437BD4690BD00BF60A1002052
S31520001E108949002044A0002068A100205D1E0020E2
S31520001E20400D03001F85EB5188A1002090A10020C2
S31520001E307C9400208F190020AC9B002088940020E1
S31520001E4094940020A094002056555555809B002040
S31520001E50AC940020D0940020E494002080B584B077
S31520001E6000AF7860396000220A490B4801F0BCFDBA
S31520001E70F860FB68002B08D1084B1A460849094828
S31520001E8001F0B2FD084B78229A6000BF1037BD469C
S31520001E9080BD00BF2949002044A0002004950020D1
S31520001EA08F190020AC9B0020809B002080B58EB02F
S31520001EB000AFF860B9607A603B60B968F86800F0F6
S31520001EC04AF8B8627968B86800F045F878623968E7
S31520001ED0786800F040F83862BB6A7B617B6ABB6138
S31520001EE03B6AFB61BB6A7B63BB6A3B630123FB6284
S31520001EF022E0FB6A9B0038333B4453F8243C3A6B80
S31520001F009A4206DDFB6A9B0038333B4453F8243C57
S31520001F103B63FB6A9B0038333B4453F8243C7A6B83
S31520001F209A4206DAFB6A9B0038333B4453F8243C3A
S31520001F307B63FB6A0133FB62FB6A022BD9DD7A6B7A
S31520001F403B6BD31A642B01DD002300E001231846E6
S31520001F503837BD4680BD80B483B000AF7860396025
S31520001F607A683B689A4203DD7A683B68D31A02E0B6
S31520001F703A687B68D31A18460C37BD465DF8047B51
S31520001F80704780B588B002AF7860396007F10803E2
S31520001F901A462349234801F027FD234B1A46234995
S31520001FA0234801F021FD07F1080303331A461F4990
S31520001FB01F4801F019FD1F4B1A461C491C4801F009
S31520001FC013FD00237B6123E007F10B027B69134499
S31520001FD01B78FB74FB7C002B16D0FB7C202B02D1BC
S31520001FE0154800F017F9FB7C0093144B144A002186
S31520001FF0002001F05BFCFB7C0093124B124A00216F
S31520002000002001F053FC00E000BF7B6901337B61B7
S315200020107B69072BD8DD00BF00BF1837BD4680BDC2
S31520002020F1560020CC9F00201C9500208F190020FF
S31520002030AC9B002030950020809B002009260020A4
S31520002040349B00207D220020F0A0002080B586B0A1
S3152000205000AF7860396000221749184801F0C4FCA7
S31520002060174B9B6A002B0ED13B68202B20D1144B9B
S3152000207001229A62124B00225A620022114910480C
S3152000208001F0B2FC14E007F10C033A680E49184639
S3152000209000F04EF83B686C2B05D03A680B490C488B
S315200020A001F0A2FC04E00A220849094801F09CFC40
S315200020B000BF1837BD4680BDB1540020CC9F0020FC
S315200020C0809B0020192A00201C9B0020E519002057
S315200020D0AC9B002080B586B000AF786039600022C6
S315200020E00B490C4801F080FC00220B490B4801F0FB
S315200020F07BFC00220A490B4801F076FC0A4B1A4663
S315200021000A49064801F070FC00BF1837BD4680BD5D
S31520002110B1540020CC9F0020E9180020AC9B002061
S31520002120F948002044A00020349500208F19002073
S3152000213080B584B000AFF860B9607A607B686C2B9C
S315200021404DD1BB689B68DAB2FB681A70FB68012226
S315200021505A70FB6808229A70BB681A7CFB68DA7092
S31520002160BB685A7CFB681A71BB689A7CFB685A71FB
S31520002170BB68DA7CFB689A71BB681A7DFB68DA71EA
S31520002180BB685A7DFB681A72BB689A7DFB685A72D7
S31520002190FB6800229A72FB681A461C491C4801F00B
S315200021A023FCBB689B685A1CBB689A60BB680022EC
S315200021B01A74BB6800225A74BB6800229A74BB68E2
S315200021C00022DA74BB6800221A75BB6800225A7591
S315200021D0BB6800229A75BB680022DA6011E0BB68F2
S315200021E0DB68072B0DDCBB68DB685A1CBB68DA6032
S315200021F0BB68DB68013B7A68D1B2BA6813440A46E9
S315200022001A7400BF1037BD4680BD00BFBB570020E3
S31520002210CC9F002080B584B002AF78607B685B6A73
S31520002220002B03D17B6801225A6220E07B6878224A
S315200022309A607B680022DA607B6800221A617B68DC
S3152000224000225A617B6800229A617B684FF47A7279
S31520002250DA617B6800221A627B6800225A620023B8
S315200022600093054B7A680021002001F01FFB00BF78
S315200022700837BD4680BD00BF192A002080B594B01E
S3152000228002AF786039603B682D3B432B00F24881D2
S3152000229001A252F823F000BFF724002021250020B8
S315200022A0212500202F24002043240020572400200D
S315200022B06B2400207F24002093240020A7240020C4
S315200022C0BB240020CF240020E32400202125002049
S315200022D02125002021250020212500202125002040
S315200022E02125002021250020212500202125002030
S315200022F02125002021250020212500202125002020
S31520002300212500202125002021250020212500200F
S3152000231021250020212500202125002021250020FF
S3152000232021250020212500202125002021250020EF
S3152000233021250020212500202125002021250020DF
S3152000234021250020212500202125002021250020CF
S3152000235021250020212500202125002021250020BF
S3152000236021250020212500202125002021250020AF
S31520002370212500202125002021250020212500209F
S31520002380212500202125002021250020212500208F
S31520002390212500202125002021250020212500207F
S315200023A021250020A92300207B689B68002B06D1CD
S315200023B05D4B1A465D495E4801F016FBB1E07B682D
S315200023C09B68591C7A6891607A68134400221A73B4
S315200023D07B680C33184606F00BFA38647B680022BB
S315200023E09A6000237B6408E07A687B6C13440C3384
S315200023F000221A707B6C01337B647B6C132BF3DD1C
S3152000240007F10C003B6C4B4A322106F029FA07F102
S315200024100C031A464549464801F0E6FA3B6C009300
S31520002420454B464A0021002001F040FA79E07B68BE
S315200024309B68591C7A6891607A68134430221A7313
S315200024406FE07B689B68591C7A6891607A681344B0
S3152000245031221A7365E07B689B68591C7A68916003
S315200024607A68134432221A735BE07B689B68591C96
S315200024707A6891607A68134433221A7351E07B6834
S315200024809B68591C7A6891607A68134434221A73BF
S3152000249047E07B689B68591C7A6891607A68134488
S315200024A035221A733DE07B689B68591C7A689160D7
S315200024B07A68134436221A7333E07B689B68591C6A
S315200024C07A6891607A68134437221A7329E07B6808
S315200024D09B68591C7A6891607A68134438221A736B
S315200024E01FE07B689B68591C7A6891607A68134460
S315200024F039221A7315E07B689B68002B06D0104B97
S315200025001A460A490A4801F06FFA0AE07B689B6876
S31520002510591C7A6891607A6813442D221A7300E058
S3152000252000BF4837BD4680BD489500208F19002042
S31520002530AC9B002058950020252C0020809B002055
S315200025406495002080B588B000AF78607B6813F171
S31520002550050F02DB7B68052B06DD224B1A46224936
S31520002560224801F041FA39E007F108007B68204A49
S31520002570142106F075F907F108031A461A491B4873
S3152000258001F032FA0023FB611FE01A4AFB6952F878
S3152000259023207B6813440A33174A52F8233007F165
S315200025A00800164A142106F05BF907F108031A46BB
S315200025B00D490E4801F018FA114B1A460A490B48E4
S315200025C001F012FAFB690133FB61FB691F2BDCDD8D
S315200025D00C4B1A460449054801F006FA2037BD4639
S315200025E080BD00BF949500208F190020AC9B002051
S315200025F0A4950020A8990020289A0020B0950020B4
S31520002600B49500203095002080B59EB002AF78604A
S3152000261039603B686D2B44D03B686D2B7CDC3B6876
S315200026205B2B20D03B685D2B76D1002300933D4B5E
S315200026307A680021002001F039F97B68DB6807F110
S315200026400C00394A642106F00BF907F10C031A46EF
S315200026503649374801F0C8F9364B1A4633493448CB
S3152000266001F0C2F959E000230093334B7A68002128
S31520002670002001F01BF97B68DB6807F10C002A4A71
S31520002680642106F0EDF807F10C031A46274928487D
S3152000269001F0AAF9274B1A462449254801F0A4F946
S315200026A03BE07B689B69012B10D100230093234BD1
S315200026B07A680021002001F0F9F800230093204BCE
S315200026C07A680021002001F0F1F80FE00023009342
S315200026D01C4B7A680021002001F0E8F801230093C2
S315200026E0174B7A680021002001F0E0F87B68DB6850
S315200026F007F10C000C4A642106F0B2F807F10C032E
S315200027001A460A490A4801F06FF90A4B1A46074940
S31520002710074801F069F900E000BF00BF7037BD46E9
S3152000272080BD00BF8D2D0020B89500208F19002078
S31520002730AC9B002030950020B52D0020DD2D0020FB
S31520002740392E0020012E002080B59EB002AF786081
S3152000275039603B68732B1AD03B68772B2FD1002327
S315200027600093194B7A680021002001F09FF87B68BE
S315200027709B6807F10C00154A642106F071F807F1F1
S315200027800C031A461249134801F02EF918E00023CB
S315200027900093114B7A680021002001F087F87B68AE
S315200027A09B6807F10C00094A642106F059F807F1E5
S315200027B00C031A460649074801F016F900E000BF47
S315200027C000BF7037BD4680BDF12C0020D09500207B
S315200027D08F190020AC9B0020132D002080B584B0DB
S315200027E002AF786039603B680093064B064A0021A9
S315200027F0002001F05BF87B683A689A6000BF0837D2
S31520002800BD4680BD752F0020349B002080B584B046
S3152000281002AF786039603B680093064B064A002178
S31520002820002001F043F87B683A68DA6000BF083779
S31520002830BD4680BD912F00205C9B002080B584B0D2
S3152000284002AF786039603B68642B41D17B681B6995
S31520002850012B1ED100230093204B7A6800210020F3
S3152000286001F024F8002300931D4B7A6800210020F4
S3152000287001F01CF8002300931A4B7A6800210020EF
S3152000288001F014F8184B1A461849194801F0ACF80B
S315200028901EE000230093174B7A680021002001F0E8
S315200028A005F8642300930E4B7A680021002000F07F
S315200028B0FDFF40F2145300930A4B7A680021002052
S315200028C000F0F4FF0C4B1A460849094801F08CF831
S315200028D000BF00BF0837BD4680BD00BF592F00206E
S315200028E0DD2700200D280020FC9500208F190020D0
S315200028F0AC9B00203D2F00201096002080B592B082
S3152000290002AF786039607B689B69B3F5FA7F54DA49
S3152000291001F088F90346394A82FB03125113DA176C
S315200029208A1A374901FB02F29A1A13469B0013446E
S315200029305B001A467B68DA600023FB6302E0FB6BD0
S315200029400133FB63FB6B43F2BB429342F7DD01F09D
S3152000295069F90346294A82FB03125113DA178A1AA8
S31520002960274901FB02F29A1A13469B0013445B0087
S315200029701A467B68DB68D21A7B68DA607B68DA687D
S315200029807B681B699A4203DD7B68DA687B681A617B
S315200029907B685A697B68DB681A447B685A617B6866
S315200029A09B695A1C7B689A6100230093154B7A68B1
S315200029B00021642000F07AFF1CE07B685B69124AE4
S315200029C082FB03125211DB17D21A7B685A617B688D
S315200029D01A697B685B6907F10800009313460B4A66
S315200029E0322105F03DFF07F108031A460849094838
S315200029F000F0FAFF00BF4037BD4680BD89B5F81408
S31520002A00A0860100FD280020D34D621024960020C8
S31520002A108F190020AC9B002080B588B002AF78606B
S31520002A2039600021786802F0E0FC7B681B69424A25
S31520002A3052F823207B689B6913440A333F4A52F895
S31520002A4023301A463E493F4800F0CEFF01223E4938
S31520002A503C4800F0C9FF002300933C4B394A002133
S31520002A60002000F023FF002239493A4800F0BCFF3D
S31520002A707B681B69384A52F82330FB757B689B6854
S31520002A80364A92FBF3F33B61FB7D632B0FD0632B1E
S31520002A9015DC612B02D0622B04D010E07B683A69EA
S31520002AA01A620DE03B695A007B681A6208E03B69AE
S31520002AB0DA0F13445B101A467B681A6200E000BFE7
S31520002AC07B685B6A002B2ED17B681B6A244A82FBBB
S31520002AD003129210DB17D01A3B680093214B7A68B9
S31520002AE0002100F0E3FE7B681B6A184605F09CFD7A
S31520002AF00FA3D3E9002305F01BFB02460B46104625
S31520002B00194605F0FBFD0346FB60FB68144A82FB71
S31520002B1003129210DB17D01A3B680093124B7A6887
S31520002B20002100F0C3FE00BF1837BD4680BD00BFA0
S31520002B30CDCCCCCCCCCCEC3FA8990020289A002038
S31520002B40212F0020349B0020BD2E00206D2B00203D
S31520002B504949002044A000208C9A00200087930336
S31520002B6067666666192A0020E92B002080B586B0A4
S31520002B7002AF786039607B681B6ADA0F13445B10FA
S31520002B80FB60154B1A687B68DB689A4204D1124AAF
S31520002B907B681B69136003E00F4A7B68DB68136060
S31520002BA07B685B6A012B12D10C4B5B6A002B0ED122
S31520002BB0FB680B4A82FB03129210DB17D01A7B6844
S31520002BC0D9693B680093074B7A6800F06FFE00BF17
S31520002BD01037BD4680BD00BF1C740040809B00207E
S31520002BE0676666666D2B002080B584B002AF78607C
S31520002BF0396000230093074B074A0021002000F08C
S31520002C0055FE01220549064800F0EEFE00BF0837B2
S31520002C10BD4680BDBD2E0020349B002049490020A2
S31520002C2044A0002080B582B000AF786039603B6850
S31520002C30052B0DDC3B6813F1050F09DB124B1A46F9
S31520002C401249134800F0D0FE7B683A689A6116E074
S31520002C503B68F02B0CDC3B683B2B09DD7B683A6834
S31520002C609A600C4B1A460949094800F0BDFE06E059
S31520002C70094B1A460549064800F0B6FE00BF00BFBC
S31520002C800837BD4680BD00BF489600208F1900201A
S31520002C90AC9B0020549600206096002080B500AFA3
S31520002CA000220B490B4801F093F801220A490B48F0
S31520002CB001F08EF802220A490A4801F089F800221A
S31520002CC009490A4801F0EAF80023184680BD00BFEA
S31520002CD01B1A0020AC9B002069550020CC9F0020A9
S31520002CE0C949002044A00020D52000200C9B0020AC
S31520002CF080B483B000AF786039607B689B6803F549
S31520002D00FA727B689A6000BF0C37BD465DF8047B7B
S31520002D10704780B483B000AF786039607B689B6869
S31520002D20B3F5FA7F05DB7B689B68A3F5FA727B68AF
S31520002D309A6000BF0C37BD465DF8047B704780B5AE
S31520002D4086B002AF786039600023FB6002E0FB6842
S31520002D500133FB607B689B68FA689A42F7DB3B6825
S31520002D60084A82FB03129210DB17D01A7B68D968B7
S31520002D703B680093044B7A6800F098FD00BF10373B
S31520002D80BD4680BD676666663F2D002080B483B051
S31520002D9000AF786039607B68DB68082B04DC7B68D1
S31520002DA0DB685A1C7B68DA6000BF0C37BD465DF8CD
S31520002DB0047B704780B483B000AF786039607B684D
S31520002DC0DB68002B04DD7B68DB685A1E7B68DA60D3
S31520002DD000BF0C37BD465DF8047B704780B483B0D6
S31520002DE000AF786039607B68DA687B685A617B68F7
S31520002DF00022DA6000BF0C37BD465DF8047B7047C1
S31520002E0080B483B000AF786039607B685A697B688C
S31520002E10DA6000BF0C37BD465DF8047B704780B48E
S31520002E2083B000AF786039607B689B6918460C37A1
S31520002E30BD465DF8047B704780B483B000AF7860F0
S31520002E4039607B683A689A6100BF0C37BD465DF8E9
S31520002E50047B704780B586B002AF78603960134A2C
S31520002E603B6892FBF3F3FB60114B1A687B68DB68C7
S31520002E709A4204D10E4A7B681B69136003E00C4A10
S31520002E807B68DB681360FB680A4A82FB0312921098
S31520002E90DB17D01A7B68D9693B680093064B7A68A2
S31520002EA000F004FD00BF1037BD4680BD20A10700FD
S31520002EB01C74004067666666552E002080B483B079
S31520002EC000AF786039607B683A685A6200BF0C3779
S31520002ED0BD465DF8047B704780B485B000AF78604E
S31520002EE039600D4A3B6892FBF3F3FB600B4B1A6883
S31520002EF07B68DB689A4204D1084A7B681B691360A9
S31520002F0003E0064A7B68DB68136000BF1437BD46C2
S31520002F105DF8047B704700BF20A107001C740040A9
S31520002F2080B483B000AF786039607B683A681A62F3
S31520002F3000BF0C37BD465DF8047B704780B483B074
S31520002F4000AF786039607B6801221A6100BF0C37B8
S31520002F50BD465DF8047B704780B483B000AF7860CF
S31520002F6039607B6800221A6100BF0C37BD465DF8C8
S31520002F70047B704780B483B000AF786039607B688B
S31520002F803A68DA6100BF0C37BD465DF8047B7047AE
S31520002F9080B483B000AF786039607B683A68DA60C5
S31520002FA000BF0C37BD465DF8047B704780B483B004
S31520002FB000AF0346FB71FB7903F01F03012202FADF
S31520002FC003F1064A97F907305B0942F8231000BF40
S31520002FD00C37BD465DF8047B704700BF00E100E07A
S31520002FE080B483B000AF03463960FB7197F9073090
S31520002FF0002B0BDA3B68DAB20C49FB7903F00F039E
S31520003000043B1201D2B20B441A7609E03B68DAB2CD
S31520003010074997F907301201D2B20B4483F80023EF
S3152000302000BF0C37BD465DF8047B704700ED00E01D
S3152000303000E100E080B582B000AF78600EE07B68EA
S315200030401B780D2B07D07B685A1C7A601B78184694
S3152000305000F060F902E07B6801337B607B681B78B7
S31520003060002BECD100BF00BF0837BD4680BD80B520
S3152000307086B000AF786000237B617B6803F00F0287
S315200030807B69591C796110498A5C18333B4403F8E3
S315200030900C2C7B681B097B607B68002BEDD10AE03A
S315200030A07B69013B7B6107F10C027B6913441B782A
S315200030B0184600F02FF97B69002BF1D100BF00BF25
S315200030C01837BD4680BD00BF58A0002080B59EB0F1
S315200030D000AF78607B68002B02DA4FF0FF3300E008
S315200030E001233B677B683A6F02FB03F37B60002377
S315200030F07B6779681C4B83FB01239A10CB17D21A66
S3152000310013469B0013445B00CA1A7B6F591C7967D0
S3152000311016498A5C78333B4403F86C2C7B68124A48
S3152000312082FB03129210DB17D31A7B607B68002B7D
S31520003130DFD13B6F002B0EDA2D2000F0EBF80AE0F2
S315200031407B6F013B7B6707F10C027B6F13441B7877
S31520003150184600F0DFF87B6F002BF1D100BF00BFCF
S315200031607837BD4680BD00BF6766666658A00020DA
S3152000317080B483B000AF10237B607B6883F3118813
S3152000318000BF00BF0C37BD465DF8047B704780B496
S3152000319083B000AF30237B607B6883F3118800BF48
S315200031A000BF0C37BD465DF8047B704780B584B000
S315200031B000AF78600B48FFF73DFF0B4B1B68002BD9
S315200031C002D1094B094A1A60074B1B68FB60064B64
S315200031D01A687B681344044A1360FB681846103744
S315200031E0BD4680BDB8960020A8A10020302501202C
S315200031F080B485B000AF786039603B6803F5F95339
S3152000320010337A6813607B681B68BB600023FB6001
S315200032100AE0FB689B001A46BB6813441A46002343
S315200032201360FB680133FB60FB68332BF1DDBB6861
S315200032306FF016021A60BB6804331A460323136024
S31520003240BB6884331A464FF08073136000BF14376F
S31520003250BD465DF8047B704780B485B000AF7860CA
S3152000326039607B681B688033FB60FB683A681A60AC
S3152000327000BF1437BD465DF8047B704780B584B027
S3152000328000AF1D4803F046F93B1D184603F08EFAA1
S3152000329040F24733BB803B1D1946174803F01AFA04
S315200032A0164B174A1A6002216FF00100FFF798FEAD
S315200032B0144B154A1A6000216FF00400FFF790FEA8
S315200032C0124B134A1A6002213220FFF789FE322060
S315200032D0FFF76CFE0021084803F0B2FA01210648E8
S315200032E003F07BFB01220221034804F04AFB00BFC6
S315200032F01037BD4680BD00BF000C004038C00120FD
S31520003300F91A00202CC00120F51A002008C101203E
S315200033109B36002080B582B000AF0346FB71FB7957
S315200033209BB21946074801F00EF800BF80210548D8
S3152000333001F0F8F90346002BF8D000BF00BF08378C
S31520003340BD4680BD0010014080B500AF124803F095
S3152000335093FA03461A46114B1A60114B01221A6042
S31520003360104B00221A60104B1B68002B06D00E4B08
S315200033701B680E4A1268002110469847084B002207
S315200033801A60084B1B68002B01D000F05DFA054B34
S3152000339000221A6000BF80BD000C0040F4240120EA
S315200033A0EC240120F0240120002501200C250120F9
S315200033B080B500AF124803F05FFA03461A46114B58
S315200033C01A60114B01221A60104B00221A60104B12
S315200033D05B68002B06D00E4B5B680E4A52680121B3
S315200033E010469847084B00221A60084B1B68002B92
S315200033F001D000F029FA054B00221A6000BF80BDDB
S31520003400000C0040F4240120EC240120F0240120AB
S31520003410002501200C25012080B500AF124803F0BD
S315200034202BFA03461A46114B1A60114B01221A60D9
S31520003430104B00221A60104B9B68002B06D00E4BB7
S315200034409B680E4A9268022110469847084B002234
S315200034501A60084B1B68002B01D000F0F5F9054BCC
S3152000346000221A6000BF80BD000C0040F424012019
S31520003470EC240120F0240120002501200C25012028
S3152000348080B485B000AF786039600023FB603B686C
S315200034901B68BB6004E0BB68FB60BB681B68BB6045
S315200034A0BB68002B05D0BB689A687B689B689A42EC
S315200034B0F1DD7B68BA681A60FB68002B03D13B6894
S315200034C07A681A6002E0FB687A681A6000BF1437CF
S315200034D0BD465DF8047B704780B485B000AF786048
S315200034E039600023FB603B681B68BB6004E0BB6857
S315200034F0FB60BB681B68BB60BB68002B05D0BB6844
S315200035005A687B685B689A42F1DD7B68BA681A6004
S31520003510FB68002B03D13B687A681A6002E0FB68DF
S315200035207A681A6000BF1437BD465DF8047B704781
S3152000353080B584B000AF78607B681B68FB60FB6851
S31520003540002B04D0FB681A687B681A600CE00948D7
S31520003550FFF770FD00220221074801F072FE07489E
S31520003560FFF768FD30BFFDE7FB6818461037BD46FC
S3152000357080BD00BFD096002000040240DC960020CB
S3152000358080B584B000AF78607B681B68FB60FB6801
S31520003590002B04D0FB681A687B681A600CE0094887
S315200035A0FFF748FD00220221074801F04AFE07489E
S315200035B0FFF740FD30BFFDE7FB6818461037BD46D4
S315200035C080BD00BFD096002000040240E89600206F
S315200035D080B483B000AF786039603B681A687B6836
S315200035E01A603B687A681A6000BF0C37BD465DF8E2
S315200035F0047B704780B483B000AF786039603B6845
S315200036001A687B689A603B687A681A6000BF0C3734
S31520003610BD465DF8047B704780B485B000AF786006
S315200036207B681B68FB60FB689A687B681A60FB688E
S3152000363018461437BD465DF8047B704780B485B0C4
S3152000364000AF786039600023FB603B681B68BB6075
S3152000365004E0BB68FB60BB681B68BB60BB68002BD3
S3152000366003D0BA687B689A42F3D1BB68002B0DD091
S31520003670FB68002B04D0BB681A68FB681A6003E05D
S31520003680BB681A683B681A60012300E000231846CD
S315200036901437BD465DF8047B704780B582B000AF15
S315200036A002211E4804F0F7F91C4803F0E5F803460A
S315200036B07B6007E01A48FFF73BFF03461949184687
S315200036C0FFF7DEFE164B1B68002B06D0144B1B683B
S315200036D05A687B68D31A002BECDD114B1B68002B34
S315200036E016D00E4803F0C8F803463B600C4B1B6807
S315200036F05B683A689A4204DD002202210A4801F0FA
S31520003700A0FD074B1B685B681946044803F0F3FBD2
S3152000371000F09AF800BF0837BD4680BD000C004077
S31520003720E8240120E4240120000402400346024A42
S31520003730136010DFF74600BFFC2401200346054A2C
S315200037401360054B5B68044A43F080535360F74689
S3152000375000BF00BFFC24012000ED00E080B582B050
S3152000376000AF7860094B5B68C3F30803002B03D1D5
S315200037707868FFF7DBFF02E07868FFF7DFFFFFF7E7
S3152000378006FD00BF0837BD4680BD00BF00ED00E046
S3152000379090B585B000AF234B1C682348FFF7C8FEC1
S315200037A00346E360E368BB60FFF7F1FCBB68D868BB
S315200037B0BB681969BB685B691A4600F015F9FFF703
S315200037C0D7FC1A49B868FFF703FF194B1B689B689B
S315200037D0DB687B60144B1B68002B0AD07B68002BB0
S315200037E0D9D0114B1B689A687B689B68D31A002B2B
S315200037F0D1DD0F48FFF710FF03460E491846FFF7A5
S31520003800F9FE0B4B1B68FB6003E0FB681B691B681A
S31520003810FB60FB681B69002BF7D1F868FFF79EFF5A
S31520003820B9E700BF78A00020E42401206CA0002086
S3152000383074A0002070A0002080B500AF00F004F82E
S31520003840FFF7A5FC30BFFBE780B582B000AF144B75
S315200038501B68DB687B60134B1B68002B1BD0124B4D
S315200038601B68002B17D07B68002B07D00D4B1B68DD
S315200038709A687B689B68D31A002B0CDA0A48FFF7F4
S31520003880CBFE034606491846FFF7B4FE044B1B68D9
S315200038901846FFF763FF00BF0837BD4680BD00BF4F
S315200038A074A00020E424012070A0002080B588B0F8
S315200038B000AFF860B9607A603B60EFF312833B613A
S315200038C03B691B09012B14BF01230023DBB2FB77C5
S315200038D0FFF74EFC3A48FFF753FEB861BB697A689A
S315200038E0DA60BB693A681A61BB69BA6A5A61354BB4
S315200038F01B68002B04D1344B1B68DB685B6801E036
S31520003900324B1B68FA681A44BB695A60BB695A680D
S31520003910BB68002B01DDBB6801E06FF000431A4451
S31520003920BB699A602A4802F0A7FF03467B61BB6900
S315200039305A687B69D31A002B16DD2649B869FFF72A
S31520003940CBFD244B1B685B687A699A4204DD002212
S315200039500221214801F075FC1E4B1B685B68194645
S315200039601B4803F0C8FA21E01C49B869FFF788FD17
S31520003970FB7F002B1AD01A4B1B68002B16D0174B37
S315200039801B689A68174B1B68DB689B68D31A002B49
S315200039900CDA1348FFF740FE034612491846FFF794
S315200039A029FE104B1B681846FFF7D8FEFB7F002B1D
S315200039B001D0FFF7ECFBBB6918462037BD4680BD1A
S315200039C06CA00020EC24012078A00020F424012003
S315200039D0000C0040E824012000040240E4240120D9
S315200039E070A0002074A0002080B588B000AFF860D9
S315200039F0B9607A60EFF312833B613B691B09012BA7
S31520003A0014BF01230023DBB2FB76FFF7B1FBFB6873
S31520003A101B68FB61FB69002B37D003E0FB691B6940
S31520003A201B68FB61FB691B69002BF7D1304B1B68B8
S31520003A30FA699A4202D0FB7E002B07D1FB7E002B2F
S31520003A4001D0FFF7A4FB4FF0FF334DE0FB685B6826
S31520003A50002B03D0FB685B6800221A61244B1A688E
S31520003A60FB685A60224B1B68FA681A61F869FFF7EF
S31520003A7075FE1F4B1B68DB68002B06D1FB7E002BD7
S31520003A8001D0FFF784FB00232EE0194B1A68FB6850
S31520003A901A60FB7E002B05D0FB685B68012B01D0EA
S31520003AA0FFF775FBBB687968F86898477861FFF778
S31520003AB05FFBFB6800221A60FB685B68FB61FB69A1
S31520003AC0002B0BD0FB69012B08D0FB6800225A6023
S31520003AD0FB6900221A61F869FFF740FEFB7E002B86
S31520003AE001D0FFF754FB7B6918462037BD4680BDC1
S31520003AF078A0002080B586B000AF7860EFF31283FF
S31520003B00FB60FB681B09012B14BF01230023DBB2DA
S31520003B10FB74FFF72DFB1F497868FFF78FFD0346DF
S31520003B20002B06D11C497868FFF788FD0346002B39
S31520003B3004D01A497868FFF74BFD21E0184B1B6823
S31520003B407B611AE0174B1B687A699A4212D07B690F
S31520003B50DB687A689A420DD17B691A697B68DB68D3
S31520003B609A4207D17B690022DA600C497868FFF710
S31520003B702FFD05E07B699B687B617B69002BE1D18A
S31520003B80FB7C002B01D0FFF702FB00BF1837BD4698
S31520003B9080BD00BFE8240120E42401206CA0002081
S31520003BA074A0002078A0002080B485B000AF786093
S31520003BB0EFF31283FB60FB681B09012B04D0074B34
S31520003BC01B68DB685B6801E0054B1B687A6813603D
S31520003BD000BF1437BD465DF8047B704778A00020EF
S31520003BE0F424012080B485B000AF7860EFF312830F
S31520003BF0FB60FB681B09012B04D0084B1B68DB68A4
S31520003C005B6801E0064B1B687A6812689B1A1846A7
S31520003C101437BD465DF8047B704700BF78A00020AE
S31520003C20F424012080B584B000AFEFF312837B60CB
S31520003C307B681B09012B14BF01230023DBB2FB7316
S31520003C40FFF796FA0C4802F017FE0346BB60FB7B93
S31520003C50002B01D0FFF79BFAFB7B002B04D0074BF0
S31520003C601B68DB685B6801E0054B1B68BA68D31AE2
S31520003C7018461037BD4680BD000C004078A00020B5
S31520003C80F424012080B582B000AF00237B6012E0CF
S31520003C907B685A1C13465B001344DB00444A991880
S31520003CA043487A6813465B001344DB0003441960DB
S31520003CB07B6801337B607B681C2BE9DD3C4B002253
S31520003CC0C3F8B82200237B6013E07B685A1C134696
S31520003CD09B0013449B00374A991836487A68134646
S31520003CE09B0013449B000344083319607B6801330F
S31520003CF07B607B68022BE8DD2E4B00225A64002372
S31520003D007B6030E02B497A6813469B0013449B0066
S31520003D100B4404337A681A607A6813469B0013446E
S31520003D209B00244A1A447B685B0323490B441946AB
S31520003D301046FFF75DFA7A6813469B0013449B00F2
S31520003D401C4A13441D491846FFF786FA19497A6812
S31520003D5013469B0013449B000B44103300221A6029
S31520003D607B6801337B607B68032BCBDD144B4FF0E4
S31520003D70FF325A60124B00229A60114B00221A61C0
S31520003D800F4B0022DA600F48FFF754F90E48FFF771
S31520003D9051F90E48FFF74EF90A48FFF74BF9094843
S31520003DA0FFF748F9FFF76AFA00BF0837BD4680BD1E
S31520003DB0ACA100207CA40020D0A4002091370020B4
S31520003DC0D0240120F4960020F896002004970020A5
S31520003DD080B586B000AFF860B9601346FB71FB79F9
S31520003DE0022B41D8EFF312833B613B691B09012B60
S31520003DF014BF01230023DBB2FB75FFF7B9F9FB796A
S31520003E00022B0ED0022B10DC002B02D0012B04D06B
S31520003E100BE0174B174A1A6014E0174B174A1A6023
S31520003E2010E0174B174A1A600CE01748FFF702F903
S31520003E3000220221154801F004FA1548FFF7FAF886
S31520003E4030BFFDE7FB791349FA6841F82320FB7957
S31520003E501149BA6841F82320FB6801225A60FB7D8C
S31520003E60002B01D0FFF793F900BF1837BD4680BD60
S31520003E70D4C001204933002090C00120B133002056
S31520003E809CC0012019340020D09600200004024056
S31520003E901C9700200C2501200025012080B586B026
S31520003EA002AFF860B9607A60FFF762F9FFF7EAFEC1
S31520003EB0BB68002B16D00F4802F0DEFC03461A46DC
S31520003EC00D4B1A600D4B01221A607B680093BB686C
S31520003ED0FA6800210020FFF7E9FC084B00221A604F
S31520003EE0FFF7B2FCFFF7A8FC002318461037BD46A3
S31520003EF080BD00BF000C0040F4240120EC240120EA
S31520003F0080B582B000AF78607B683B4A934208D187
S31520003F100121102002F0A2F90021102002F09EF9C2
S31520003F2065E07B68354A93420AD101214FF400307F
S31520003F3002F074F900214FF4003002F06FF956E0D8
S31520003F407B682F4A93420AD101214FF4802002F048
S31520003F5065F900214FF4802002F060F947E07B6884
S31520003F60284A93420AD101214FF4002002F056F943
S31520003F7000214FF4002002F051F938E07B68224AF4
S31520003F8093420AD101214FF4801002F047F9002113
S31520003F904FF4801002F042F929E07B681B4A9342D5
S31520003FA008D10121202002F059F90021202002F019
S31520003FB055F91CE07B68164A93420AD101214FF03D
S31520003FC0804002F02BF900214FF0804002F026F9C4
S31520003FD00DE07B680F4A934209D101214FF0004042
S31520003FE002F01CF900214FF0004002F017F900BF43
S31520003FF00837BD4680BD00BF001001400044004088
S3152000400000480040004C0040005000400014014091
S3152000401000780040007C004080B58AB000AF786010
S31520004020396000237B6200233B620023FB6100236F
S31520004030BB617B681B8A9BB27B627B6A23F44053FD
S315200040407B623B68DB881A467B6A13437B627B6A0A
S315200040509AB27B681A827B689B899BB27B627B6A59
S3152000406023F4B05323F00C037B623B689A883B68A9
S315200040701B8913439AB23B685B8913439BB21A464A
S315200040807B6A13437B627B6A9AB27B689A817B68E0
S315200040909B8A9BB27B627B6A23F440737B623B687C
S315200040A09B891A467B6A13437B627B6A9AB27B683A
S315200040B09A8207F10803184601F0FAFD7B68304A18
S315200040C0934203D07B682F4A934202D17B693B629D
S315200040D001E03B693B627B689B899BB21BB2002B4C
S315200040E00CDA3A6A13469B0013449A001A443B683A
S315200040F01B685B00B2FBF3F3FB610BE03A6A1346E5
S315200041009B0013449A001A443B681B689B00B2FB31
S31520004110F3F3FB61FB691C4AA2FB03235B091B012A
S315200041207B627B6A1B09642202FB03F3FA69D31ABA
S31520004130BB617B689B899BB21BB2002B0CDABB69E7
S31520004140DB003233104AA2FB03235B0903F007038B
S315200041507A6A13437B620BE0BB691B0132330A4A3E
S31520004160A2FB03235B0903F00F037A6A13437B62E6
S315200041707B6A9AB27B681A8100BF2837BD4680BD0C
S3152000418000100140001401401F85EB5180B483B01C
S3152000419000AF78607B684FF416521A607B68002265
S315200041A09A807B680022DA807B6800221A817B68ED
S315200041B00C225A817B6800229A8100BF0C37BD46AB
S315200041C05DF8047B704780B485B000AF78603960B5
S315200041D00023FB607B681B8A9BB2FB60FB6823F491
S315200041E07063FB603B681A883B685B8813439AB20E
S315200041F03B689B8813439AB23B68DB8813439BB288
S315200042001A46FB681343FB60FB689AB27B681A82E6
S3152000421000BF1437BD465DF8047B704780B483B079
S3152000422000AF78607B6800221A807B6800225A8063
S315200042307B6800229A807B680022DA8000BF0C37D8
S31520004240BD465DF8047B704780B483B000AF7860CC
S315200042500B46FB70FB78002B08D07B689B899BB2B2
S3152000426043F400539AB27B689A8107E07B689B8966
S315200042709BB223F400539AB27B689A8100BF0C3715
S31520004280BD465DF8047B704780B483B000AF78608C
S315200042900B46FB707B681B8B9BB223F0FF039AB205
S315200042A07B681A837B681B8B9AB2FB789BB213437D
S315200042B09AB27B681A8300BF0C37BD465DF8047B33
S315200042C0704780B483B000AF78600B46FB70FB78F4
S315200042D0002B0AD07B689B899BB26FEA43436FEA27
S315200042E053439AB27B689A8107E07B689B899BB28D
S315200042F0C3F30E039AB27B689A8100BF0C37BD4682
S315200043005DF8047B704780B483B000AF78600B46BD
S31520004310FB70FB78002B08D07B689B8A9BB243F40A
S3152000432000639AB27B689A8207E07B689B8A9BB27D
S3152000433023F400639AB27B689A8200BF0C37BD468D
S315200043405DF8047B704780B483B000AF78600B467D
S315200043507B807B88C3F308039AB27B689A8000BF70
S315200043600C37BD465DF8047B704780B483B000AF40
S3152000437078607B689B889BB2C3F308039BB2184680
S315200043800C37BD465DF8047B704780B483B000AF20
S3152000439078600B46FB707B681B8A9BB223F00F0369
S315200043A09AB27B681A827B681B8A9AB2FB789BB288
S315200043B013439AB27B681A8200BF0C37BD465DF85C
S315200043C0047B704780B483B000AF78600B46FB70E7
S315200043D0FB78002B08D07B689B899BB243F00203B5
S315200043E09AB27B689A8107E07B689B899BB223F00F
S315200043F002039AB27B689A8100BF0C37BD465DF8EE
S31520004400047B704780B483B000AF78600B467B8016
S315200044107B689B899BB223F400639AB27B689A815E
S315200044207B689B899AB27B8813439AB27B689A8170
S3152000443000BF0C37BD465DF8047B704780B483B05F
S3152000444000AF78600B467B807B681B8A9BB223F08B
S3152000445020039AB27B681A827B681B8A9AB27B8871
S3152000446013439AB27B681A8200BF0C37BD465DF8AB
S31520004470047B704780B483B000AF78600B46FB7036
S31520004480FB78002B08D07B681B8A9BB243F48043C1
S315200044909AB27B681A8207E07B681B8A9BB223F458
S315200044A080439AB27B681A8200BF0C37BD465DF8FE
S315200044B0047B704780B483B000AF78607B689B89AB
S315200044C09BB243F001039AB27B689A8100BF0C37F6
S315200044D0BD465DF8047B704780B483B000AF78603A
S315200044E00B46FB70FB78002B08D07B689B8A9BB21F
S315200044F043F008039AB27B689A8207E07B689B8A1E
S315200045009BB223F008039AB27B689A8200BF0C37CD
S31520004510BD465DF8047B704780B483B000AF7860F9
S315200045200B46FB707B681B8B9BB2DBB29AB27B6817
S315200045301A837B681B8B9AB2FB789BB21B029BB2B9
S3152000454013439AB27B681A8300BF0C37BD465DF8C9
S31520004550047B704780B483B000AF78600B46FB7055
S31520004560FB78002B08D07B689B8A9BB243F0200304
S315200045709AB27B689A8207E07B689B8A9BB223F07B
S3152000458020039AB27B689A8200BF0C37BD465DF83D
S31520004590047B704780B483B000AF78600B46FB7015
S315200045A0FB78002B08D07B689B8A9BB243F01003D4
S315200045B09AB27B689A8207E07B689B8A9BB223F03B
S315200045C010039AB27B689A8200BF0C37BD465DF80D
S315200045D0047B704780B483B000AF78600B467B8045
S315200045E07B689B8A9BB223F004039AB27B689A82EB
S315200045F07B689B8A9AB27B8813439AB27B689A829D
S3152000460000BF0C37BD465DF8047B704780B483B08D
S3152000461000AF78600B46FB70FB78002B08D07B68D8
S315200046209B8A9BB243F002039AB27B689A8207E088
S315200046307B689B8A9BB223F002039AB27B689A829C
S3152000464000BF0C37BD465DF8047B704780B483B04D
S3152000465000AF78600B467B8013467B707B78002BFF
S3152000466008D07B689B8A9AB27B8813439AB27B6870
S315200046709A8209E07B689B8A9AB27B88DB439BB24D
S3152000468013409AB27B689A8200BF0C37BD465DF80C
S31520004690047B704780B487B000AF78600B467B8080
S315200046A013467B7000233B610023FB600023BB6025
S315200046B000237B617B687B617B88DBB25B09DBB295
S315200046C03B617B8803F01F03FB600122FB6802FA33
S315200046D003F3BB603B69012B03D17B690C337B6100
S315200046E009E03B69022B03D17B6910337B6102E031
S315200046F07B6914337B617B78002B06D07B69196834
S315200047007B69BA680A431A6006E07B691968BB6848
S31520004710DA437B690A401A6000BF1C37BD465DF844
S31520004720047B704780B485B000AF78600B467B80F1
S315200047300023FB737B681B889AB27B8813409BB24D
S31520004740002B02D00123FB7301E00023FB73FB7BCC
S3152000475018461437BD465DF8047B704780B483B095
S3152000476000AF78600B467B807B88DB439AB27B6800
S315200047701A8000BF0C37BD465DF8047B704780B4B5
S3152000478087B000AF78600B467B800023FB60002358
S315200047907B610023BB600023FB747B88DBB25B0953
S315200047A0DBB2BB607B8803F01F037B6101227B6940
S315200047B002FA03F37B61BB68012B07D17B689B89D7
S315200047C09BB21A467B6913407B6111E0BB68022BC2
S315200047D007D17B681B8A9BB21A467B6913407B6193
S315200047E006E07B689B8A9BB21A467B6913407B61F5
S315200047F07B881B0A9BB2FB600122FB6802FA03F34B
S31520004800FB607B681B889BB21A46FB681340FB60E3
S315200048107B69002B05D0FB68002B02D00123FB749B
S3152000482001E00023FB74FB7C18461C37BD465DF86F
S31520004830047B704780B485B000AF78600B467B80E0
S315200048400023FB810023BB817B881B0AFB81FB891C
S31520004850012202FA03F3BB81BB89DB439AB27B6850
S315200048601A8000BF1437BD465DF8047B704700BF31
S3152000487080B483B000AF0346FB71FB7903F01F03BE
S31520004880012202FA03F1064A97F907305B0942F83A
S31520004890231000BF0C37BD465DF8047B704700BF70
S315200048A000E100E080B483B000AF03463960FB71BD
S315200048B097F90730002B0BDA3B68DAB20C49FB7903
S315200048C003F00F03043B1201D2B20B441A7609E01F
S315200048D03B68DAB2074997F907301201D2B20B4486
S315200048E083F8002300BF0C37BD465DF8047B704774
S315200048F000ED00E000E100E080B582B000AF786016
S31520004900396000220121074800F09BFC0221172074
S31520004910FFF7C8FF1720FFF7ABFF00BF0837BD46DC
S3152000492080BD00BF0004024080B582B000AF786031
S3152000493039607B689B688021184600F016FC034688
S3152000494018460837BD4680BD80B582B000AF786076
S3152000495039607B689B683A68D2B20121184600F01C
S3152000496070FC00BF0837BD4680BD80B582B000AF61
S31520004970786039607B689B680121184600F088FCC6
S3152000498000BF0837BD4680BD80B584B000AF7860D3
S31520004990396007F108031846FBF776FC8023BB60D5
S315200049A000233B733B68002B01D0082300E00C2337
S315200049B07B730123BB7307F108031846FBF7F2FB51
S315200049C000BF1037BD4680BD80B584B002AF786089
S315200049D039608020FBF7AAFC0346012B14D18020E6
S315200049E0FBF7BEFC7B68DB68002B10D07B68DA689F
S315200049F07B681B690021009100210020FEF756FFED
S31520004A00054B01221A6002E00448FEF713FB00233F
S31520004A1018460837BD4680BDF02401203C9700206B
S31520004A2080B500AF01214FF0005001F0F7FB0021C7
S31520004A304FF0005001F0F2FB00BF80BD80B485B07E
S31520004A4000AF786039600023FB600023BB60144B05
S31520004A501B68FB6040F6FE727B6802FA03F3DB43B9
S31520004A60FA681340FB603B681A683B685B681A4328
S31520004A703B689B681A433B68DB681343BB60BA6894
S31520004A807B6802FA03F3FA681343FB60044AFB6867
S31520004A90136000BF1437BD465DF8047B704700BF26
S31520004AA00074004080B483B000AF78607B68002239
S31520004AB01A607B6800225A607B6800229A607B68B5
S31520004AC00022DA6000BF0C37BD465DF8047B7047D4
S31520004AD080B483B000AF78600B46FB70FB78002B68
S31520004AE009D00D4B1A6801217B6801FA03F30A49A4
S31520004AF013430B6009E0084B1A6801217B6801FA11
S31520004B0003F3DB43044913400B6000BF0C37BD465B
S31520004B105DF8047B704700BF0074004080B483B00A
S31520004B2000AF78600B46FB70FB78002B0AD00E4B4B
S31520004B305A687B681B09012101FA03F30A491343CA
S31520004B404B600AE0084B5A687B681B09012101FA71
S31520004B5003F3DB43044913404B6000BF0C37BD46CB
S31520004B605DF8047B704700BF0074004080B483B0BA
S31520004B7000AF0346FB71FB79002B06D0094B5B681F
S31520004B80084A43F00303536005E0064B5B68054A79
S31520004B9023F00303536000BF0C37BD465DF8047B4A
S31520004BA0704700BF0074004080B485B000AFF86045
S31520004BB0B9601346FB71FB79002B09D00C4B1A68A0
S31520004BC0B968FB6801FA03F3094913430B6009E04E
S31520004BD0074B1A68B968FB6801FA03F3DB430449FB
S31520004BE013400B6000BF1437BD465DF8047B704749
S31520004BF00074004080B485B000AF78600B467B809F
S31520004C000023FB60084BFB60FA687B68134408337B
S31520004C10FB60FB681A467B88136000BF1437BD46CD
S31520004C205DF8047B704700BF0074004080B485B0F7
S31520004C3000AF78600B467B800023FB60084BFB604F
S31520004C40FA687B6813441433FB60FB681A467B883A
S31520004C50136000BF1437BD465DF8047B704700BF64
S31520004C600074004080B485B000AF78600B467B802E
S31520004C7013463B800023FB600023BB607B68082B28
S31520004C8005D17B881A023B881343FB6004E07B88AE
S31520004C901A043B881343FB60074BBB607A68BB68EA
S31520004CA013442033BB60BB68FA681A6000BF143710
S31520004CB0BD465DF8047B70470074004080B485B023
S31520004CC000AF78600023FB60084BFB607B689A0886
S31520004CD0FB6813442C33FB60FB681B689BB21846A9
S31520004CE01437BD465DF8047B704700BF0074004052
S31520004CF080B483B000AF78600B46FB70FB78002B46
S31520004D000AD00E4B1A684FF480517B6801FA03F3E0
S31520004D100A4913430B600AE0084B1A684FF4805186
S31520004D207B6801FA03F3DB43044913400B6000BFA1
S31520004D300C37BD465DF8047B704700BF0074004009
S31520004D4080B485B000AFF860B9601346FB71FB797B
S31520004D50002B09D00C4B1A68B968FB6801FA03F3DB
S31520004D60094913430B6009E0074B1A68B968FB68C9
S31520004D7001FA03F3DB43044913400B6000BF1437E9
S31520004D80BD465DF8047B70470074004080B485B052
S31520004D9000AF786039600023FB730A4B5A6B396881
S31520004DA07B6801FA03F31340002B02D00123FB7327
S31520004DB001E00023FB73FB7B18461437BD465DF8E4
S31520004DC0047B70470074004080B483B000AF7860E5
S31520004DD0396006493A687B6802FA03F34B6300BFE1
S31520004DE00C37BD465DF8047B704700BF0074004059
S31520004DF080B485B000AF786039600023FB73002350
S31520004E00BB60104B1A6839687B6801FA03F31340BC
S31520004E10BB600C4B5A6B39687B6801FA03F313406D
S31520004E20002B05D0BB68002B02D00123FB7301E0C9
S31520004E300023FB73FB7B18461437BD465DF8047BC5
S31520004E40704700BF0074004080B483B000AF786024
S31520004E50396006493A687B6802FA03F34B6300BF60
S31520004E600C37BD465DF8047B704700BF00740040D8
S31520004E7080B582B000AF78607B684B4A934208D1F8
S31520004E800121012001F06AF90021012001F066F9D3
S31520004E9086E07B68454A934208D10121022001F031
S31520004EA05DF90021022001F059F979E07B68404A3A
S31520004EB0934208D10121042001F050F90021042059
S31520004EC001F04CF96CE07B683A4A934208D1012103
S31520004ED0082001F043F90021082001F03FF95FE0A6
S31520004EE07B68354A934208D10121102001F036F91A
S31520004EF00021102001F032F952E07B682F4A9342BC
S31520004F0008D10121202001F029F90021202001F0DB
S31520004F1025F945E07B682A4A934208D101214020A1
S31520004F2001F01CF90021402001F018F938E07B68D7
S31520004F30244A934208D10121802001F00FF9002153
S31520004F40802001F00BF92BE07B681F4A93420AD19F
S31520004F5001214FF4807001F001F900214FF4807097
S31520004F6001F0FCF81CE07B68184A93420AD1012123
S31520004F704FF4007001F0F2F800214FF4007001F0B8
S31520004F80EDF80DE07B68124A934209D101214FF4D6
S31520004F90806001F0E3F800214FF4806001F0DEF834
S31520004FA000BF0837BD4680BD000002400004024015
S31520004FB000080240000C024000100240001402408B
S31520004FC000180240001C024000200240002402403B
S31520004FD00028024080B487B000AF78603960002393
S31520004FE07B6100233B610023FB6000237B6176E02D
S31520004FF001227B6902FA03F33B613B681B683A692D
S315200050001340FB60FA683B699A4265D17B681A684F
S315200050107B695B00032101FA03F3DB431A407B68BB
S315200050201A607B681A683B681B7919467B695B00A6
S3152000503001FA03F31A437B681A603B681B79012B3C
S3152000504003D03B681B79022B2ED17B689A687B693B
S315200050505B00032101FA03F3DB431A407B689A6065
S315200050607B689A683B685B7919467B695B0001FA25
S3152000507003F31A437B689A607B685A687B699BB204
S31520005080194601238B40DB431A407B685A607B68B4
S315200050905B683A68927911467A6992B201FA02F20D
S315200050A092B21A437B685A607B68DA687B699BB246
S315200050B05B00032101FA03F3DB431A407B68DA60C5
S315200050C07B68DA683B68DB7919467B695B0001FA05
S315200050D003F31A437B68DA607B6901337B617B6962
S315200050E00F2B85D900BF00BF1C37BD465DF8047B5A
S315200050F0704780B483B000AF78607B684FF6FF724C
S315200051001A607B6800221A717B6800225A717B68BC
S3152000511000229A717B680022DA7100BF0C37BD46E7
S315200051205DF8047B704780B485B000AF78600B468D
S315200051307B804FF48033FB607A88FB681343FB60E7
S31520005140FA687B68DA617A887B68DA61FA687B6854
S31520005150DA617B68DB69FB607B68DB69FB6000BF2B
S315200051601437BD465DF8047B704780B485B000AF28
S3152000517078600B467B800023FB737B681A697B88EB
S315200051801340002B02D00123FB7301E00023FB73A5
S31520005190FB7B18461437BD465DF8047B704780B408
S315200051A083B000AF78607B681B699BB218460C37CA
S315200051B0BD465DF8047B704780B485B000AF78604B
S315200051C00B467B800023FB737B685A697B881340E0
S315200051D0002B02D00123FB7301E00023FB73FB7B32
S315200051E018461437BD465DF8047B704780B483B0FB
S315200051F000AF78607B685B699BB218460C37BD466A
S315200052005DF8047B704780B483B000AF78600B46AE
S315200052107B807B687A881A8300BF0C37BD465DF891
S31520005220047B704780B483B000AF78600B467B80E8
S315200052307B687A885A8300BF0C37BD465DF8047BAD
S31520005240704780B483B000AF78600B467B801346EE
S315200052507B707B78002B03D07B687A881A8302E0E8
S315200052607B687A885A8300BF0C37BD465DF8047B7D
S31520005270704780B483B000AF78600B467B807A8815
S315200052807B685A6100BF0C37BD465DF8047B7047CA
S3152000529080B483B000AF78600B467B807B685A6908
S315200052A07B885A407B685A6100BF0C37BD465DF843
S315200052B0047B704780B485B000AF78600B467B8056
S315200052C013467B700023FB600023BB607A787B88C3
S315200052D003F007039B0002FA03F3FB607B88DB08DD
S315200052E09BB21A467B68083253F822207B8803F04B
S315200052F007039B000F2101FA03F3DB437988C908D2
S3152000530089B2084602EA03017B6800F1080243F8E5
S3152000531022107B88DB089BB21A467B68083253F83A
S315200053202230FA681343BB607B88DB089BB21A469F
S315200053307B680832B96843F8221000BF1437BD468F
S315200053405DF8047B704700BF80B483B000AF7860FF
S3152000535039607B683A681A6200BF0C37BD465DF833
S31520005360047B704780B483B000AF786039607B6877
S315200053701B6A18460C37BD465DF8047B704780B41F
S3152000538083B000AF786039607B683A689A6100BF65
S315200053900C37BD465DF8047B704780B483B000AF00
S315200053A0786039607B683A689A6000BF0C37BD46E2
S315200053B05DF8047B704780B483B000AF78603960B5
S315200053C07B689B6918460C37BD465DF8047B7047A1
S315200053D080B483B000AF786039607B689B681846DC
S315200053E00C37BD465DF8047B704780B483B000AFB0
S315200053F0786039607B68DB685A4203F01F0302F04D
S315200054001F0258BF53427A6813617B68DB685A1CB7
S315200054107B68DA607B6800225A6100BF0C37BD4684
S315200054205DF8047B7047000080B483B000AF03466C
S31520005430FB71FB7903F01F03012202FA03F1064AEE
S3152000544097F907305B0942F8231000BF0C37BD4699
S315200054505DF8047B704700BF00E100E080B483B0B4
S3152000546000AF03463960FB7197F90730002B0BDA42
S315200054703B68DAB20C49FB7903F00F03043B1201B7
S31520005480D2B20B441A7609E03B68DAB2074997F99B
S3152000549007301201D2B20B4483F8002300BF0C3729
S315200054A0BD465DF8047B704700ED00E000E100E0BA
S315200054B080B586B000AF786039607B6800229A613B
S315200054C07B689A697B685A617B685A697B68DA616E
S315200054D007F10C031846FBF70BF90023BB740023D6
S315200054E0FB7400233B7500237B750023BB750023CB
S315200054F0FB750023BB730023FB7302233B7403233A
